{
  "contractName": "Taxi",
  "abi": [
    {
      "inputs": [],
      "stateMutability": "nonpayable",
      "type": "constructor"
    },
    {
      "anonymous": false,
      "inputs": [
        {
          "indexed": false,
          "internalType": "uint256",
          "name": "id",
          "type": "uint256"
        },
        {
          "indexed": false,
          "internalType": "string",
          "name": "fromLocation",
          "type": "string"
        },
        {
          "indexed": false,
          "internalType": "string",
          "name": "toLocation",
          "type": "string"
        },
        {
          "indexed": false,
          "internalType": "address",
          "name": "rider",
          "type": "address"
        }
      ],
      "name": "reqCreated",
      "type": "event"
    },
    {
      "anonymous": false,
      "inputs": [
        {
          "indexed": false,
          "internalType": "uint256",
          "name": "id",
          "type": "uint256"
        },
        {
          "components": [
            {
              "internalType": "uint256",
              "name": "id",
              "type": "uint256"
            },
            {
              "internalType": "string",
              "name": "fromLocation",
              "type": "string"
            },
            {
              "internalType": "string",
              "name": "toLocation",
              "type": "string"
            },
            {
              "internalType": "address",
              "name": "rider",
              "type": "address"
            }
          ],
          "indexed": false,
          "internalType": "struct Taxi.Request",
          "name": "req",
          "type": "tuple"
        },
        {
          "indexed": false,
          "internalType": "uint256",
          "name": "price",
          "type": "uint256"
        },
        {
          "indexed": false,
          "internalType": "address payable",
          "name": "driver",
          "type": "address"
        }
      ],
      "name": "rideCreated",
      "type": "event"
    },
    {
      "anonymous": false,
      "inputs": [
        {
          "indexed": false,
          "internalType": "uint256",
          "name": "id",
          "type": "uint256"
        },
        {
          "indexed": false,
          "internalType": "uint256",
          "name": "price",
          "type": "uint256"
        },
        {
          "indexed": false,
          "internalType": "address payable",
          "name": "driver",
          "type": "address"
        }
      ],
      "name": "rideStarted",
      "type": "event"
    },
    {
      "inputs": [],
      "name": "name",
      "outputs": [
        {
          "internalType": "string",
          "name": "",
          "type": "string"
        }
      ],
      "stateMutability": "view",
      "type": "function",
      "constant": true
    },
    {
      "inputs": [],
      "name": "requestCount",
      "outputs": [
        {
          "internalType": "uint256",
          "name": "",
          "type": "uint256"
        }
      ],
      "stateMutability": "view",
      "type": "function",
      "constant": true
    },
    {
      "inputs": [
        {
          "internalType": "uint256",
          "name": "",
          "type": "uint256"
        }
      ],
      "name": "requests",
      "outputs": [
        {
          "internalType": "uint256",
          "name": "id",
          "type": "uint256"
        },
        {
          "internalType": "string",
          "name": "fromLocation",
          "type": "string"
        },
        {
          "internalType": "string",
          "name": "toLocation",
          "type": "string"
        },
        {
          "internalType": "address",
          "name": "rider",
          "type": "address"
        }
      ],
      "stateMutability": "view",
      "type": "function",
      "constant": true
    },
    {
      "inputs": [],
      "name": "rideCount",
      "outputs": [
        {
          "internalType": "uint256",
          "name": "",
          "type": "uint256"
        }
      ],
      "stateMutability": "view",
      "type": "function",
      "constant": true
    },
    {
      "inputs": [
        {
          "internalType": "uint256",
          "name": "",
          "type": "uint256"
        }
      ],
      "name": "rides",
      "outputs": [
        {
          "internalType": "uint256",
          "name": "id",
          "type": "uint256"
        },
        {
          "components": [
            {
              "internalType": "uint256",
              "name": "id",
              "type": "uint256"
            },
            {
              "internalType": "string",
              "name": "fromLocation",
              "type": "string"
            },
            {
              "internalType": "string",
              "name": "toLocation",
              "type": "string"
            },
            {
              "internalType": "address",
              "name": "rider",
              "type": "address"
            }
          ],
          "internalType": "struct Taxi.Request",
          "name": "req",
          "type": "tuple"
        },
        {
          "internalType": "uint256",
          "name": "price",
          "type": "uint256"
        },
        {
          "internalType": "address payable",
          "name": "driver",
          "type": "address"
        }
      ],
      "stateMutability": "view",
      "type": "function",
      "constant": true
    },
    {
      "inputs": [
        {
          "internalType": "string",
          "name": "_fromLocation",
          "type": "string"
        },
        {
          "internalType": "string",
          "name": "_toLocation",
          "type": "string"
        }
      ],
      "name": "createRequest",
      "outputs": [],
      "stateMutability": "nonpayable",
      "type": "function"
    },
    {
      "inputs": [
        {
          "internalType": "uint256",
          "name": "_id",
          "type": "uint256"
        },
        {
          "internalType": "uint256",
          "name": "_price",
          "type": "uint256"
        }
      ],
      "name": "createRide",
      "outputs": [],
      "stateMutability": "nonpayable",
      "type": "function"
    },
    {
      "inputs": [
        {
          "internalType": "uint256",
          "name": "_id",
          "type": "uint256"
        }
      ],
      "name": "startRide",
      "outputs": [],
      "stateMutability": "payable",
      "type": "function",
      "payable": true
    }
  ],
  "bytecode": "0x6080604052600060015560006002553480156200001b57600080fd5b506040518060400160405280600c81526020017f4343542054617869204170700000000000000000000000000000000000000000815250600090805190602001906200006992919062000070565b5062000185565b8280546200007e9062000120565b90600052602060002090601f016020900481019282620000a25760008555620000ee565b82601f10620000bd57805160ff1916838001178555620000ee565b82800160010185558215620000ee579182015b82811115620000ed578251825591602001919060010190620000d0565b5b509050620000fd919062000101565b5090565b5b808211156200011c57600081600090555060010162000102565b5090565b600060028204905060018216806200013957607f821691505b6020821081141562000150576200014f62000156565b5b50919050565b7f4e487b7100000000000000000000000000000000000000000000000000000000600052602260045260246000fd5b61151080620001956000396000f3fe60806040526004361061007b5760003560e01c806385a791731161004e57806385a7917314610156578063b47c18831461017f578063df89f819146101aa578063e9c14b1e146101d35761007b565b806306fdde03146100805780635205f112146100ab5780635badbe4c146100eb57806381d12c5814610116575b600080fd5b34801561008c57600080fd5b506100956101ef565b6040516100a29190611179565b60405180910390f35b3480156100b757600080fd5b506100d260048036038101906100cd9190610fed565b61027d565b6040516100e29493929190611209565b60405180910390f35b3480156100f757600080fd5b5061010061045b565b60405161010d919061119b565b60405180910390f35b34801561012257600080fd5b5061013d60048036038101906101389190610fed565b610461565b60405161014d94939291906111b6565b60405180910390f35b34801561016257600080fd5b5061017d60048036038101906101789190611016565b6105c1565b005b34801561018b57600080fd5b50610194610905565b6040516101a1919061119b565b60405180910390f35b3480156101b657600080fd5b506101d160048036038101906101cc9190610f81565b61090b565b005b6101ed60048036038101906101e89190610fed565b610a5e565b005b600080546101fc906113aa565b80601f0160208091040260200160405190810160405280929190818152602001828054610228906113aa565b80156102755780601f1061024a57610100808354040283529160200191610275565b820191906000526020600020905b81548152906001019060200180831161025857829003601f168201915b505050505081565b600460205280600052604060002060009150905080600001549080600101604051806080016040529081600082015481526020016001820180546102c0906113aa565b80601f01602080910402602001604051908101604052809291908181526020018280546102ec906113aa565b80156103395780601f1061030e57610100808354040283529160200191610339565b820191906000526020600020905b81548152906001019060200180831161031c57829003601f168201915b50505050508152602001600282018054610352906113aa565b80601f016020809104026020016040519081016040528092919081815260200182805461037e906113aa565b80156103cb5780601f106103a0576101008083540402835291602001916103cb565b820191906000526020600020905b8154815290600101906020018083116103ae57829003601f168201915b505050505081526020016003820160009054906101000a900473ffffffffffffffffffffffffffffffffffffffff1673ffffffffffffffffffffffffffffffffffffffff1673ffffffffffffffffffffffffffffffffffffffff1681525050908060050154908060060160009054906101000a900473ffffffffffffffffffffffffffffffffffffffff16905084565b60025481565b600360205280600052604060002060009150905080600001549080600101805461048a906113aa565b80601f01602080910402602001604051908101604052809291908181526020018280546104b6906113aa565b80156105035780601f106104d857610100808354040283529160200191610503565b820191906000526020600020905b8154815290600101906020018083116104e657829003601f168201915b505050505090806002018054610518906113aa565b80601f0160208091040260200160405190810160405280929190818152602001828054610544906113aa565b80156105915780601f1061056657610100808354040283529160200191610591565b820191906000526020600020905b81548152906001019060200180831161057457829003601f168201915b5050505050908060030160009054906101000a900473ffffffffffffffffffffffffffffffffffffffff16905084565b600060036000848152602001908152602001600020604051806080016040529081600082015481526020016001820180546105fb906113aa565b80601f0160208091040260200160405190810160405280929190818152602001828054610627906113aa565b80156106745780601f1061064957610100808354040283529160200191610674565b820191906000526020600020905b81548152906001019060200180831161065757829003601f168201915b5050505050815260200160028201805461068d906113aa565b80601f01602080910402602001604051908101604052809291908181526020018280546106b9906113aa565b80156107065780601f106106db57610100808354040283529160200191610706565b820191906000526020600020905b8154815290600101906020018083116106e957829003601f168201915b505050505081526020016003820160009054906101000a900473ffffffffffffffffffffffffffffffffffffffff1673ffffffffffffffffffffffffffffffffffffffff1673ffffffffffffffffffffffffffffffffffffffff168152505090506001600081548092919061077a906113dc565b9190505550604051806080016040528060015481526020018281526020018381526020013373ffffffffffffffffffffffffffffffffffffffff1681525060046000600154815260200190815260200160002060008201518160000155602082015181600101600082015181600001556020820151816001019080519060200190610806929190610e61565b506040820151816002019080519060200190610823929190610e61565b5060608201518160030160006101000a81548173ffffffffffffffffffffffffffffffffffffffff021916908373ffffffffffffffffffffffffffffffffffffffff16021790555050506040820151816005015560608201518160060160006101000a81548173ffffffffffffffffffffffffffffffffffffffff021916908373ffffffffffffffffffffffffffffffffffffffff1602179055509050507f6f47f11e2c6f6c41b723e05652c1ad30d6a7b371a9da9d50e9c18a4416610da96001548284336040516108f89493929190611209565b60405180910390a1505050565b60015481565b600082511161091957600080fd5b600081511161092757600080fd5b6002600081548092919061093a906113dc565b9190505550604051806080016040528060025481526020018381526020018281526020013373ffffffffffffffffffffffffffffffffffffffff168152506003600060025481526020019081526020016000206000820151816000015560208201518160010190805190602001906109b3929190610e61565b5060408201518160020190805190602001906109d0929190610e61565b5060608201518160030160006101000a81548173ffffffffffffffffffffffffffffffffffffffff021916908373ffffffffffffffffffffffffffffffffffffffff1602179055509050507fefa4f9cbfa92b58b4d32c3b7b7169882631ee9b0e7bfdfd1e4a6030bdff8b66e600254838333604051610a5294939291906111b6565b60405180910390a15050565b60008111610a6b57600080fd5b600060046000838152602001908152602001600020604051806080016040529081600082015481526020016001820160405180608001604052908160008201548152602001600182018054610abf906113aa565b80601f0160208091040260200160405190810160405280929190818152602001828054610aeb906113aa565b8015610b385780601f10610b0d57610100808354040283529160200191610b38565b820191906000526020600020905b815481529060010190602001808311610b1b57829003601f168201915b50505050508152602001600282018054610b51906113aa565b80601f0160208091040260200160405190810160405280929190818152602001828054610b7d906113aa565b8015610bca5780601f10610b9f57610100808354040283529160200191610bca565b820191906000526020600020905b815481529060010190602001808311610bad57829003601f168201915b505050505081526020016003820160009054906101000a900473ffffffffffffffffffffffffffffffffffffffff1673ffffffffffffffffffffffffffffffffffffffff1673ffffffffffffffffffffffffffffffffffffffff16815250508152602001600582015481526020016006820160009054906101000a900473ffffffffffffffffffffffffffffffffffffffff1673ffffffffffffffffffffffffffffffffffffffff1673ffffffffffffffffffffffffffffffffffffffff1681525050905060008160600151905060008260000151118015610cb25750600154826000015111155b610cbb57600080fd5b8160400151341015610ccc57600080fd5b816004600085815260200190815260200160002060008201518160000155602082015181600101600082015181600001556020820151816001019080519060200190610d19929190610e61565b506040820151816002019080519060200190610d36929190610e61565b5060608201518160030160006101000a81548173ffffffffffffffffffffffffffffffffffffffff021916908373ffffffffffffffffffffffffffffffffffffffff16021790555050506040820151816005015560608201518160060160006101000a81548173ffffffffffffffffffffffffffffffffffffffff021916908373ffffffffffffffffffffffffffffffffffffffff1602179055509050508073ffffffffffffffffffffffffffffffffffffffff166108fc349081150290604051600060405180830381858888f19350505050158015610e1a573d6000803e3d6000fd5b507f99eb49436088928e17a1c434667c1b65024411e4f4adb39446208e1ad9b0db20600154836040015133604051610e5493929190611255565b60405180910390a1505050565b828054610e6d906113aa565b90600052602060002090601f016020900481019282610e8f5760008555610ed6565b82601f10610ea857805160ff1916838001178555610ed6565b82800160010185558215610ed6579182015b82811115610ed5578251825591602001919060010190610eba565b5b509050610ee39190610ee7565b5090565b5b80821115610f00576000816000905550600101610ee8565b5090565b6000610f17610f12846112bd565b61128c565b905082815260208101848484011115610f2f57600080fd5b610f3a848285611368565b509392505050565b600082601f830112610f5357600080fd5b8135610f63848260208601610f04565b91505092915050565b600081359050610f7b816114c3565b92915050565b60008060408385031215610f9457600080fd5b600083013567ffffffffffffffff811115610fae57600080fd5b610fba85828601610f42565b925050602083013567ffffffffffffffff811115610fd757600080fd5b610fe385828601610f42565b9150509250929050565b600060208284031215610fff57600080fd5b600061100d84828501610f6c565b91505092915050565b6000806040838503121561102957600080fd5b600061103785828601610f6c565b925050602061104885828601610f6c565b9150509250929050565b61105b8161132c565b82525050565b61106a8161131a565b82525050565b6110798161131a565b82525050565b600061108a826112ed565b61109481856112f8565b93506110a4818560208601611377565b6110ad816114b2565b840191505092915050565b60006110c3826112ed565b6110cd8185611309565b93506110dd818560208601611377565b6110e6816114b2565b840191505092915050565b6000608083016000830151611109600086018261115b565b5060208301518482036020860152611121828261107f565b9150506040830151848203604086015261113b828261107f565b91505060608301516111506060860182611061565b508091505092915050565b6111648161135e565b82525050565b6111738161135e565b82525050565b6000602082019050818103600083015261119381846110b8565b905092915050565b60006020820190506111b0600083018461116a565b92915050565b60006080820190506111cb600083018761116a565b81810360208301526111dd81866110b8565b905081810360408301526111f181856110b8565b90506112006060830184611070565b95945050505050565b600060808201905061121e600083018761116a565b818103602083015261123081866110f1565b905061123f604083018561116a565b61124c6060830184611052565b95945050505050565b600060608201905061126a600083018661116a565b611277602083018561116a565b6112846040830184611052565b949350505050565b6000604051905081810181811067ffffffffffffffff821117156112b3576112b2611483565b5b8060405250919050565b600067ffffffffffffffff8211156112d8576112d7611483565b5b601f19601f8301169050602081019050919050565b600081519050919050565b600082825260208201905092915050565b600082825260208201905092915050565b60006113258261133e565b9050919050565b60006113378261133e565b9050919050565b600073ffffffffffffffffffffffffffffffffffffffff82169050919050565b6000819050919050565b82818337600083830152505050565b60005b8381101561139557808201518184015260208101905061137a565b838111156113a4576000848401525b50505050565b600060028204905060018216806113c257607f821691505b602082108114156113d6576113d5611454565b5b50919050565b60006113e78261135e565b91507fffffffffffffffffffffffffffffffffffffffffffffffffffffffffffffffff82141561141a57611419611425565b5b600182019050919050565b7f4e487b7100000000000000000000000000000000000000000000000000000000600052601160045260246000fd5b7f4e487b7100000000000000000000000000000000000000000000000000000000600052602260045260246000fd5b7f4e487b7100000000000000000000000000000000000000000000000000000000600052604160045260246000fd5b6000601f19601f8301169050919050565b6114cc8161135e565b81146114d757600080fd5b5056fea2646970667358221220644df74ae0f3404479404ed8eedb73d1d5e8ccfde92f0a77548c71bdb44edd0a64736f6c63430008000033",
  "immutableReferences": {},
  "source": "// SPDX-License-Identifier: MIT\r\n\r\npragma solidity ^0.8.0;\r\n\r\ncontract Taxi {\r\n    \r\n    constructor()  {\r\n        name = \"CCT Taxi App\";\r\n            }\r\n\r\n\r\n struct Request {\r\n        uint id;      \r\n        string fromLocation;\r\n        string toLocation;\r\n        address rider;       \r\n    }\r\n\r\n    event reqCreated (\r\n        uint id,\r\n        string fromLocation,\r\n        string toLocation,\r\n        address rider       \r\n\r\n    );\r\n\r\n    struct Ride {\r\n        uint id;\r\n        Request req;\r\n        uint price;\r\n        address payable driver;       \r\n    }\r\n\r\n    event rideCreated (\r\n        uint id,\r\n        Request req,\r\n        uint price,\r\n        address payable  driver       \r\n\r\n    );\r\n\r\n    event rideStarted(\r\n        uint id,       \r\n        uint price,\r\n        address payable driver  \r\n    );\r\n\r\n    string public name;\r\n    uint public rideCount = 0;\r\n    uint public requestCount = 0;\r\n    mapping(uint => Request) public requests;\r\n    mapping(uint => Ride) public rides;\r\n\r\n//from customers POV\r\n    function createRequest(string memory _fromLocation, string memory _toLocation) public {\r\n    // Require a valid location\r\n    require(bytes(_fromLocation).length > 0);\r\n    require(bytes(_toLocation).length > 0);     \r\n    // Increment request count\r\n    requestCount ++;\r\n    // Create the request\r\n    requests[requestCount] = Request(requestCount, _fromLocation, _toLocation, msg.sender);\r\n    // Trigger an event\r\n    emit reqCreated(requestCount, _fromLocation,_toLocation, msg.sender);\r\n}\r\n\r\n//from Drivers POV\r\nfunction createRide(uint _id , uint _price) public {\r\n    // Require a valid location\r\n   \r\n    Request memory _request = requests[_id];\r\n    \r\n    // Increment ride count\r\n    rideCount ++;\r\n    // Create the ride\r\n    rides[rideCount] = Ride(rideCount, _request, _price, payable(msg.sender));\r\n    // Trigger an event\r\n    emit rideCreated(rideCount,_request, _price, payable(msg.sender));\r\n}\r\n\r\n//will start only when customer has accepted price  CUSTOMER PCV\r\nfunction startRide(uint _id) public payable {\r\n    // Require a valid location\r\n    require(_id > 0);       \r\n    // Increment request count\r\n    Ride memory _ride = rides[_id];\r\n    // Fetch the owner\r\n    address payable _driver = _ride.driver;\r\n    // Make sure the product has a valid id\r\n    require(_ride.id > 0 && _ride.id <= rideCount);\r\n    // Require that there is enough Ether in the transaction\r\n    require(msg.value >= _ride.price);    \r\n    // Update the product\r\n    rides[_id] = _ride;\r\n    // Pay the seller by sending them Ether\r\n    _driver.transfer(msg.value);\r\n    // Trigger an event\r\n    emit rideStarted(rideCount, _ride.price, payable(msg.sender));\r\n}\r\n\r\n   \r\n\r\n\r\n\r\n\r\n\r\n\r\n\r\n}",
  "sourcePath": "C:\\Users\\ohter\\Documents\\GitHub\\DDT\\src\\contracts\\Taxi.sol",
  "compiler": {
    "name": "solc",
    "version": "0.8.0+commit.c7dfd78e.Emscripten.clang"
  },
  "schemaVersion": "3.4.10",
  "updatedAt": "2022-11-30T15:38:59.217Z",
  "networkType": "ethereum",
  "devdoc": {
    "kind": "dev",
    "methods": {},
    "version": 1
  },
  "userdoc": {
    "kind": "user",
    "methods": {},
    "version": 1
  }
}